{
  "contractName": "SecureVoting",
  "abi": [
    {
      "inputs": [
        {
          "internalType": "string[]",
          "name": "_candidateNames",
          "type": "string[]"
        }
      ],
      "stateMutability": "nonpayable",
      "type": "constructor"
    },
    {
      "anonymous": false,
      "inputs": [
        {
          "indexed": false,
          "internalType": "bytes32",
          "name": "proofHash",
          "type": "bytes32"
        },
        {
          "indexed": false,
          "internalType": "uint256",
          "name": "candidateIndex",
          "type": "uint256"
        }
      ],
      "name": "VoteCast",
      "type": "event"
    },
    {
      "inputs": [
        {
          "internalType": "uint256",
          "name": "",
          "type": "uint256"
        }
      ],
      "name": "candidates",
      "outputs": [
        {
          "internalType": "string",
          "name": "name",
          "type": "string"
        },
        {
          "internalType": "uint256",
          "name": "voteCount",
          "type": "uint256"
        }
      ],
      "stateMutability": "view",
      "type": "function",
      "constant": true
    },
    {
      "inputs": [
        {
          "internalType": "address",
          "name": "",
          "type": "address"
        }
      ],
      "name": "hasVoted",
      "outputs": [
        {
          "internalType": "bool",
          "name": "",
          "type": "bool"
        }
      ],
      "stateMutability": "view",
      "type": "function",
      "constant": true
    },
    {
      "inputs": [
        {
          "internalType": "bytes32",
          "name": "",
          "type": "bytes32"
        }
      ],
      "name": "usedProofs",
      "outputs": [
        {
          "internalType": "bool",
          "name": "",
          "type": "bool"
        }
      ],
      "stateMutability": "view",
      "type": "function",
      "constant": true
    },
    {
      "inputs": [
        {
          "internalType": "bytes32",
          "name": "proofHash",
          "type": "bytes32"
        },
        {
          "internalType": "uint256",
          "name": "candidateIndex",
          "type": "uint256"
        }
      ],
      "name": "vote",
      "outputs": [],
      "stateMutability": "nonpayable",
      "type": "function"
    },
    {
      "inputs": [],
      "name": "getCandidates",
      "outputs": [
        {
          "components": [
            {
              "internalType": "string",
              "name": "name",
              "type": "string"
            },
            {
              "internalType": "uint256",
              "name": "voteCount",
              "type": "uint256"
            }
          ],
          "internalType": "struct SecureVoting.Candidate[]",
          "name": "",
          "type": "tuple[]"
        }
      ],
      "stateMutability": "view",
      "type": "function",
      "constant": true
    },
    {
      "inputs": [
        {
          "internalType": "uint256",
          "name": "candidateIndex",
          "type": "uint256"
        }
      ],
      "name": "getVoteCount",
      "outputs": [
        {
          "internalType": "uint256",
          "name": "",
          "type": "uint256"
        }
      ],
      "stateMutability": "view",
      "type": "function",
      "constant": true
    }
  ],
  "bytecode": "0x608060405234801562000010575f80fd5b50604051620013dd380380620013dd833981810160405281019062000036919062000359565b5f5b8151811015620000d45760026040518060400160405280848481518110620000655762000064620003a8565b5b602002602001015181526020015f815250908060018154018082558091505060019003905f5260205f2090600202015f909190919091505f820151815f019081620000b191906200060c565b506020820151816001015550508080620000cb906200071d565b91505062000038565b505062000769565b5f604051905090565b5f80fd5b5f80fd5b5f80fd5b5f601f19601f8301169050919050565b7f4e487b71000000000000000000000000000000000000000000000000000000005f52604160045260245ffd5b6200013982620000f1565b810181811067ffffffffffffffff821117156200015b576200015a62000101565b5b80604052505050565b5f6200016f620000dc565b90506200017d82826200012e565b919050565b5f67ffffffffffffffff8211156200019f576200019e62000101565b5b602082029050602081019050919050565b5f80fd5b5f80fd5b5f67ffffffffffffffff821115620001d557620001d462000101565b5b620001e082620000f1565b9050602081019050919050565b5f5b838110156200020c578082015181840152602081019050620001ef565b5f8484015250505050565b5f6200022d6200022784620001b8565b62000164565b9050828152602081018484840111156200024c576200024b620001b4565b5b62000259848285620001ed565b509392505050565b5f82601f830112620002785762000277620000ed565b5b81516200028a84826020860162000217565b91505092915050565b5f620002a9620002a38462000182565b62000164565b90508083825260208201905060208402830185811115620002cf57620002ce620001b0565b5b835b818110156200031d57805167ffffffffffffffff811115620002f857620002f7620000ed565b5b80860162000307898262000261565b85526020850194505050602081019050620002d1565b5050509392505050565b5f82601f8301126200033e576200033d620000ed565b5b81516200035084826020860162000293565b91505092915050565b5f60208284031215620003715762000370620000e5565b5b5f82015167ffffffffffffffff811115620003915762000390620000e9565b5b6200039f8482850162000327565b91505092915050565b7f4e487b71000000000000000000000000000000000000000000000000000000005f52603260045260245ffd5b5f81519050919050565b7f4e487b71000000000000000000000000000000000000000000000000000000005f52602260045260245ffd5b5f60028204905060018216806200042457607f821691505b6020821081036200043a5762000439620003df565b5b50919050565b5f819050815f5260205f209050919050565b5f6020601f8301049050919050565b5f82821b905092915050565b5f600883026200049e7fffffffffffffffffffffffffffffffffffffffffffffffffffffffffffffffff8262000461565b620004aa868362000461565b95508019841693508086168417925050509392505050565b5f819050919050565b5f819050919050565b5f620004f4620004ee620004e884620004c2565b620004cb565b620004c2565b9050919050565b5f819050919050565b6200050f83620004d4565b620005276200051e82620004fb565b8484546200046d565b825550505050565b5f90565b6200053d6200052f565b6200054a81848462000504565b505050565b5b818110156200057157620005655f8262000533565b60018101905062000550565b5050565b601f821115620005c0576200058a8162000440565b620005958462000452565b81016020851015620005a5578190505b620005bd620005b48562000452565b8301826200054f565b50505b505050565b5f82821c905092915050565b5f620005e25f1984600802620005c5565b1980831691505092915050565b5f620005fc8383620005d1565b9150826002028217905092915050565b6200061782620003d5565b67ffffffffffffffff81111562000633576200063262000101565b5b6200063f82546200040c565b6200064c82828562000575565b5f60209050601f83116001811462000682575f84156200066d578287015190505b620006798582620005ef565b865550620006e8565b601f198416620006928662000440565b5f5b82811015620006bb5784890151825560018201915060208501945060208101905062000694565b86831015620006db5784890151620006d7601f891682620005d1565b8355505b6001600288020188555050505b505050505050565b7f4e487b71000000000000000000000000000000000000000000000000000000005f52601160045260245ffd5b5f6200072982620004c2565b91507fffffffffffffffffffffffffffffffffffffffffffffffffffffffffffffffff82036200075e576200075d620006f0565b5b600182019050919050565b610c6680620007775f395ff3fe608060405234801561000f575f80fd5b5060043610610060575f3560e01c806306a49fce1461006457806309eef43e146100825780633477ee2e146100b25780639ef1204c146100e3578063b2c2f2e8146100ff578063c30a0f251461012f575b5f80fd5b61006c61015f565b604051610079919061076d565b60405180910390f35b61009c600480360381019061009791906107eb565b610254565b6040516100a99190610830565b60405180910390f35b6100cc60048036038101906100c79190610873565b610271565b6040516100da9291906108f5565b60405180910390f35b6100fd60048036038101906100f89190610956565b610326565b005b61011960048036038101906101149190610873565b610547565b6040516101269190610994565b60405180910390f35b610149600480360381019061014491906109ad565b6105ba565b6040516101569190610830565b60405180910390f35b60606002805480602002602001604051908101604052809291908181526020015f905b8282101561024b578382905f5260205f2090600202016040518060400160405290815f820180546101b290610a05565b80601f01602080910402602001604051908101604052809291908181526020018280546101de90610a05565b80156102295780601f1061020057610100808354040283529160200191610229565b820191905f5260205f20905b81548152906001019060200180831161020c57829003601f168201915b5050505050815260200160018201548152505081526020019060010190610182565b50505050905090565b6001602052805f5260405f205f915054906101000a900460ff1681565b60028181548110610280575f80fd5b905f5260205f2090600202015f91509050805f01805461029f90610a05565b80601f01602080910402602001604051908101604052809291908181526020018280546102cb90610a05565b80156103165780601f106102ed57610100808354040283529160200191610316565b820191905f5260205f20905b8154815290600101906020018083116102f957829003601f168201915b5050505050908060010154905082565b60015f3373ffffffffffffffffffffffffffffffffffffffff1673ffffffffffffffffffffffffffffffffffffffff1681526020019081526020015f205f9054906101000a900460ff16156103b0576040517f08c379a00000000000000000000000000000000000000000000000000000000081526004016103a790610a7f565b60405180910390fd5b5f808381526020019081526020015f205f9054906101000a900460ff161561040d576040517f08c379a000000000000000000000000000000000000000000000000000000000815260040161040490610ae7565b60405180910390fd5b6002805490508110610454576040517f08c379a000000000000000000000000000000000000000000000000000000000815260040161044b90610b4f565b60405180910390fd5b60015f808481526020019081526020015f205f6101000a81548160ff0219169083151502179055506001805f3373ffffffffffffffffffffffffffffffffffffffff1673ffffffffffffffffffffffffffffffffffffffff1681526020019081526020015f205f6101000a81548160ff0219169083151502179055506001600282815481106104e6576104e5610b6d565b5b905f5260205f2090600202016001015f8282546105039190610bc7565b925050819055507fd10f6697fe785cf6ab300b0a28e7b2403b8742966ec5535806af5b24613611a4828260405161053b929190610c09565b60405180910390a15050565b5f600280549050821061058f576040517f08c379a000000000000000000000000000000000000000000000000000000000815260040161058690610b4f565b60405180910390fd5b600282815481106105a3576105a2610b6d565b5b905f5260205f209060020201600101549050919050565b5f602052805f5260405f205f915054906101000a900460ff1681565b5f81519050919050565b5f82825260208201905092915050565b5f819050602082019050919050565b5f81519050919050565b5f82825260208201905092915050565b5f5b8381101561063657808201518184015260208101905061061b565b5f8484015250505050565b5f601f19601f8301169050919050565b5f61065b826105ff565b6106658185610609565b9350610675818560208601610619565b61067e81610641565b840191505092915050565b5f819050919050565b61069b81610689565b82525050565b5f604083015f8301518482035f8601526106bb8282610651565b91505060208301516106d06020860182610692565b508091505092915050565b5f6106e683836106a1565b905092915050565b5f602082019050919050565b5f610704826105d6565b61070e81856105e0565b935083602082028501610720856105f0565b805f5b8581101561075b578484038952815161073c85826106db565b9450610747836106ee565b925060208a01995050600181019050610723565b50829750879550505050505092915050565b5f6020820190508181035f83015261078581846106fa565b905092915050565b5f80fd5b5f73ffffffffffffffffffffffffffffffffffffffff82169050919050565b5f6107ba82610791565b9050919050565b6107ca816107b0565b81146107d4575f80fd5b50565b5f813590506107e5816107c1565b92915050565b5f60208284031215610800576107ff61078d565b5b5f61080d848285016107d7565b91505092915050565b5f8115159050919050565b61082a81610816565b82525050565b5f6020820190506108435f830184610821565b92915050565b61085281610689565b811461085c575f80fd5b50565b5f8135905061086d81610849565b92915050565b5f602082840312156108885761088761078d565b5b5f6108958482850161085f565b91505092915050565b5f82825260208201905092915050565b5f6108b8826105ff565b6108c2818561089e565b93506108d2818560208601610619565b6108db81610641565b840191505092915050565b6108ef81610689565b82525050565b5f6040820190508181035f83015261090d81856108ae565b905061091c60208301846108e6565b9392505050565b5f819050919050565b61093581610923565b811461093f575f80fd5b50565b5f813590506109508161092c565b92915050565b5f806040838503121561096c5761096b61078d565b5b5f61097985828601610942565b925050602061098a8582860161085f565b9150509250929050565b5f6020820190506109a75f8301846108e6565b92915050565b5f602082840312156109c2576109c161078d565b5b5f6109cf84828501610942565b91505092915050565b7f4e487b71000000000000000000000000000000000000000000000000000000005f52602260045260245ffd5b5f6002820490506001821680610a1c57607f821691505b602082108103610a2f57610a2e6109d8565b5b50919050565b7f416c726561647920766f746564000000000000000000000000000000000000005f82015250565b5f610a69600d8361089e565b9150610a7482610a35565b602082019050919050565b5f6020820190508181035f830152610a9681610a5d565b9050919050565b7f50726f6f6620616c7265616479207573656400000000000000000000000000005f82015250565b5f610ad160128361089e565b9150610adc82610a9d565b602082019050919050565b5f6020820190508181035f830152610afe81610ac5565b9050919050565b7f496e76616c69642063616e6469646174650000000000000000000000000000005f82015250565b5f610b3960118361089e565b9150610b4482610b05565b602082019050919050565b5f6020820190508181035f830152610b6681610b2d565b9050919050565b7f4e487b71000000000000000000000000000000000000000000000000000000005f52603260045260245ffd5b7f4e487b71000000000000000000000000000000000000000000000000000000005f52601160045260245ffd5b5f610bd182610689565b9150610bdc83610689565b9250828201905080821115610bf457610bf3610b9a565b5b92915050565b610c0381610923565b82525050565b5f604082019050610c1c5f830185610bfa565b610c2960208301846108e6565b939250505056fea2646970667358221220416af2a91a8bbadd755059817ede3c50e168c14ae89093db643b3b153cbf935764736f6c63430008150033",
  "immutableReferences": {},
  "source": "// contracts/SecureVoting.sol\r\n// SPDX-License-Identifier: MIT\r\npragma solidity ^0.8.0;\r\n\r\ncontract SecureVoting {\r\n    struct Candidate {\r\n        string name;\r\n        uint256 voteCount;\r\n    }\r\n\r\n    mapping(bytes32 => bool) public usedProofs;\r\n    mapping(address => bool) public hasVoted;\r\n    \r\n    Candidate[] public candidates;\r\n\r\n    event VoteCast(bytes32 proofHash, uint256 candidateIndex);\r\n\r\n    constructor(string[] memory _candidateNames) {\r\n        for (uint i = 0; i < _candidateNames.length; i++) {\r\n            candidates.push(Candidate({\r\n                name: _candidateNames[i],\r\n                voteCount: 0\r\n            }));\r\n        }\r\n    }\r\n\r\n    function vote(bytes32 proofHash, uint256 candidateIndex) public {\r\n        require(!hasVoted[msg.sender], \"Already voted\");\r\n        require(!usedProofs[proofHash], \"Proof already used\");\r\n        require(candidateIndex < candidates.length, \"Invalid candidate\");\r\n        usedProofs[proofHash] = true;\r\n        hasVoted[msg.sender] = true;\r\n        candidates[candidateIndex].voteCount += 1;\r\n\r\n        emit VoteCast(proofHash, candidateIndex);\r\n    }\r\n\r\n    function getCandidates() public view returns (Candidate[] memory) {\r\n        return candidates;\r\n    }\r\n\r\n    function getVoteCount(uint256 candidateIndex) public view returns (uint256) {\r\n        require(candidateIndex < candidates.length, \"Invalid candidate\");\r\n        return candidates[candidateIndex].voteCount;\r\n    }\r\n}\r\n",
  "sourcePath": "C:\\College\\Blockchain\\Electronic_Voting_zk-STARKs\\Smart Contract\\contracts\\SecureVoting.sol",
  "compiler": {
    "name": "solc",
    "version": "0.8.21+commit.d9974bed.Emscripten.clang"
  },
  "schemaVersion": "3.4.16",
  "updatedAt": "2025-04-08T08:46:51.526Z",
  "networkType": "ethereum",
  "devdoc": {
    "kind": "dev",
    "methods": {},
    "version": 1
  },
  "userdoc": {
    "kind": "user",
    "methods": {},
    "version": 1
  }
}